{
  "contractName": "RDVCoin",
  "abi": [
    {
      "inputs": [],
      "stateMutability": "nonpayable",
      "type": "constructor"
    },
    {
      "inputs": [
        {
          "internalType": "uint256",
          "name": "requested",
          "type": "uint256"
        },
        {
          "internalType": "uint256",
          "name": "available",
          "type": "uint256"
        }
      ],
      "name": "InsufficientBalance",
      "type": "error"
    },
    {
      "anonymous": false,
      "inputs": [
        {
          "indexed": false,
          "internalType": "address",
          "name": "from",
          "type": "address"
        },
        {
          "indexed": false,
          "internalType": "address",
          "name": "to",
          "type": "address"
        },
        {
          "indexed": false,
          "internalType": "uint256",
          "name": "amount",
          "type": "uint256"
        }
      ],
      "name": "Sent",
      "type": "event"
    },
    {
      "inputs": [
        {
          "internalType": "address",
          "name": "",
          "type": "address"
        }
      ],
      "name": "balances",
      "outputs": [
        {
          "internalType": "uint256",
          "name": "",
          "type": "uint256"
        }
      ],
      "stateMutability": "view",
      "type": "function"
    },
    {
      "inputs": [],
      "name": "minter",
      "outputs": [
        {
          "internalType": "address",
          "name": "",
          "type": "address"
        }
      ],
      "stateMutability": "view",
      "type": "function"
    },
    {
      "inputs": [],
      "name": "totalBalance",
      "outputs": [
        {
          "internalType": "uint256",
          "name": "",
          "type": "uint256"
        }
      ],
      "stateMutability": "view",
      "type": "function"
    },
    {
      "inputs": [],
      "name": "getTotalBalance",
      "outputs": [
        {
          "internalType": "uint256",
          "name": "",
          "type": "uint256"
        }
      ],
      "stateMutability": "view",
      "type": "function"
    },
    {
      "inputs": [
        {
          "internalType": "address",
          "name": "account",
          "type": "address"
        }
      ],
      "name": "getBalanceFor",
      "outputs": [
        {
          "internalType": "uint256",
          "name": "",
          "type": "uint256"
        }
      ],
      "stateMutability": "view",
      "type": "function"
    },
    {
      "inputs": [
        {
          "internalType": "address",
          "name": "receiver",
          "type": "address"
        },
        {
          "internalType": "uint256",
          "name": "amount",
          "type": "uint256"
        }
      ],
      "name": "mint",
      "outputs": [],
      "stateMutability": "nonpayable",
      "type": "function"
    },
    {
      "inputs": [
        {
          "internalType": "address",
          "name": "receiver",
          "type": "address"
        },
        {
          "internalType": "uint256",
          "name": "amount",
          "type": "uint256"
        }
      ],
      "name": "send",
      "outputs": [],
      "stateMutability": "nonpayable",
      "type": "function"
    }
  ],
  "bytecode": "0x608060405234801561001057600080fd5b50336000806101000a81548173ffffffffffffffffffffffffffffffffffffffff021916908373ffffffffffffffffffffffffffffffffffffffff16021790555060006002819055506107e0806100686000396000f3fe608060405234801561001057600080fd5b506004361061007d5760003560e01c806340c10f191161005b57806340c10f19146100ee57806359c589a11461010a578063ad7a672f1461013a578063d0679d34146101585761007d565b8063075461721461008257806312b58349146100a057806327e235e3146100be575b600080fd5b61008a610174565b60405161009791906104fb565b60405180910390f35b6100a8610198565b6040516100b5919061052f565b60405180910390f35b6100d860048036038101906100d3919061057b565b6101a2565b6040516100e5919061052f565b60405180910390f35b610108600480360381019061010391906105d4565b6101ba565b005b610124600480360381019061011f919061057b565b6102bb565b604051610131919061052f565b60405180910390f35b610142610304565b60405161014f919061052f565b60405180910390f35b610172600480360381019061016d91906105d4565b61030a565b005b60008054906101000a900473ffffffffffffffffffffffffffffffffffffffff1681565b6000600254905090565b60016020528060005260406000206000915090505481565b60008054906101000a900473ffffffffffffffffffffffffffffffffffffffff1673ffffffffffffffffffffffffffffffffffffffff163373ffffffffffffffffffffffffffffffffffffffff1614610248576040517f08c379a000000000000000000000000000000000000000000000000000000000815260040161023f90610671565b60405180910390fd5b806002600082825461025a91906106c0565b9250508190555080600160008473ffffffffffffffffffffffffffffffffffffffff1673ffffffffffffffffffffffffffffffffffffffff16815260200190815260200160002060008282546102b091906106c0565b925050819055505050565b6000600160008373ffffffffffffffffffffffffffffffffffffffff1673ffffffffffffffffffffffffffffffffffffffff168152602001908152602001600020549050919050565b60025481565b600160003373ffffffffffffffffffffffffffffffffffffffff1673ffffffffffffffffffffffffffffffffffffffff168152602001908152602001600020548111156103cf5780600160003373ffffffffffffffffffffffffffffffffffffffff1673ffffffffffffffffffffffffffffffffffffffff168152602001908152602001600020546040517fcf4791810000000000000000000000000000000000000000000000000000000081526004016103c6929190610716565b60405180910390fd5b80600160003373ffffffffffffffffffffffffffffffffffffffff1673ffffffffffffffffffffffffffffffffffffffff168152602001908152602001600020600082825461041e919061073f565b9250508190555080600160008473ffffffffffffffffffffffffffffffffffffffff1673ffffffffffffffffffffffffffffffffffffffff168152602001908152602001600020600082825461047491906106c0565b925050819055507f3990db2d31862302a685e8086b5755072a6e2b5b780af1ee81ece35ee3cd33453383836040516104ae93929190610773565b60405180910390a15050565b600073ffffffffffffffffffffffffffffffffffffffff82169050919050565b60006104e5826104ba565b9050919050565b6104f5816104da565b82525050565b600060208201905061051060008301846104ec565b92915050565b6000819050919050565b61052981610516565b82525050565b60006020820190506105446000830184610520565b92915050565b600080fd5b610558816104da565b811461056357600080fd5b50565b6000813590506105758161054f565b92915050565b6000602082840312156105915761059061054a565b5b600061059f84828501610566565b91505092915050565b6105b181610516565b81146105bc57600080fd5b50565b6000813590506105ce816105a8565b92915050565b600080604083850312156105eb576105ea61054a565b5b60006105f985828601610566565b925050602061060a858286016105bf565b9150509250929050565b600082825260208201905092915050565b7f4f6e6c7920746865206f776e65722063616e206d696e7420636f696e73000000600082015250565b600061065b601d83610614565b915061066682610625565b602082019050919050565b6000602082019050818103600083015261068a8161064e565b9050919050565b7f4e487b7100000000000000000000000000000000000000000000000000000000600052601160045260246000fd5b60006106cb82610516565b91506106d683610516565b9250827fffffffffffffffffffffffffffffffffffffffffffffffffffffffffffffffff0382111561070b5761070a610691565b5b828201905092915050565b600060408201905061072b6000830185610520565b6107386020830184610520565b9392505050565b600061074a82610516565b915061075583610516565b92508282101561076857610767610691565b5b828203905092915050565b600060608201905061078860008301866104ec565b61079560208301856104ec565b6107a26040830184610520565b94935050505056fea264697066735822122093c7ff9e7c254ace45a976daa7e3a12e52b47f303d855705822ae29b44e619c664736f6c634300080d0033",
  "immutableReferences": {},
  "source": "// SPDX-License-Identifier: GPL-3.0\npragma solidity ^0.8.13;\n\n// Mai && Luke: The most powerful couple\ncontract RDVCoin {\n    \n    address public minter;\n    mapping(address => uint256) public balances;\n    uint256 public totalBalance;\n    \n    event Sent(address from, address to, uint256 amount);\n\n    //constructor\n    constructor() {\n        minter = msg.sender;\n        totalBalance = 0;\n    }\n\n    function getTotalBalance() view public returns (uint) {\n        return totalBalance;\n    }\n\n    function getBalanceFor(address account) view public returns(uint256) {\n        return balances[account];\n    }\n\n    // Sends an amount of newly created coins to an address Can only be called by the contract creator\n    function mint(address receiver, uint256 amount) public {\n        require(msg.sender == minter, 'Only the owner can mint coins');\n        totalBalance += amount;\n        balances[receiver] += amount;\n    }\n\n    // Errors allow you to provide information about why an operation failed. They are returned to the caller of the function.\n    error InsufficientBalance(uint256 requested, uint256 available);\n\n    // Sends an amount of existing coins from any caller to an address\n    function send(address receiver, uint256 amount) public {\n        if (amount > balances[msg.sender])\n            revert InsufficientBalance({\n                requested: amount,\n                available: balances[msg.sender]\n            });\n        balances[msg.sender] -= amount;\n        balances[receiver] += amount;\n        emit Sent(msg.sender, receiver, amount);\n    }\n}",
  "sourcePath": "/Users/delirios/ethereum/rdv-coin/contracts/RDVCoin.sol",
  "compiler": {
    "name": "solc",
    "version": "0.8.13+commit.abaa5c0e.Emscripten.clang"
  },
  "schemaVersion": "3.4.7",
  "updatedAt": "2022-05-14T19:41:32.227Z",
  "devdoc": {
    "kind": "dev",
    "methods": {},
    "version": 1
  },
  "userdoc": {
    "kind": "user",
    "methods": {},
    "version": 1
  }
}